:020000040000FA
:1000000002EF00F084EF16F0FF00FF00FF00FF009A
:102D0000FF0098EC16F0120000018FEF16F0948E81
:102D10008C98AB8E1200AB9E949E8C881200B5EC02
:102D200016F0A5EC16F081EC16F0DFEC16F0FDD7EE
:102D3000B886AC98AC94370EAF6E010EB06E949C12
:102D4000AC8AAB8887EC16F01200150EC16E800EAF
:102D5000C06E020E0101E76FF70EE66F000EE16F25
:102D6000000EE06F000EDF6F120089681D0E8A6E84
:102D7000F30E8B6E0F0E8C6E8D6892681C0E936E28
:102D8000380E946E000E956E966812008BEC16F05D
:102D9000C00EC76E200EC66E8C828C928C828C9078
:102DA000E0C1C9FF9EA6FED79E968C80C9CFDFF1F9
:102DB000000EC76E000EC66E87EC16F01200040EF1
:102DC0000F6E000E116E000E106E000E136E010ECF
:102DD000126E010E85EC17F00FC01FF010C020F02E
:102DE0001F04010E2058D8A0120024C0E0F1C6EC48
:102DF00016F01200016E070ED56EF294C00ED66E5C
:102E0000060ED76ED58EF2A4FED7F294D59E000E94
:102E1000026E0CD0200E0224D96EDA6A000EDA227D
:102E2000DF50AD6E9EA8FED79E98022A0150025C2C
:102E3000D8B01200EFD7000E016E070ED56EF294D7
:102E4000C00ED66E060ED76ED58E11D09EAA0FD0AC
:102E5000200E0124D96EDA6A000EDA22AECFDFFF2F
:102E6000012A9E9AF294000ED66E000ED76EF2B42E
:102E700003D0130E0164EAD7D59E015012000A6EEA
:102E80000D680E68000E0B6E37D0000E036EFF0E3D
:102E9000046E0DC005F00EC006F003500516045078
:102EA0000616200E0B24D96EDA6A000EDA22DF50E5
:102EB000076E07500D18086E000E0E18096E0850A8
:102EC00005100D6E06500E6E000E0C6E0DA00CD08F
:102ED000D8900E30046E0D30036E010E03180D6E87
:102EE000A00E04180E6E03D0D8900E320D320C2AAC
:102EF000070E0C64EBD70B2A0A500B5CD8A0C5D781
:102F00000DC001F00EC002F012001A6E1AC020F0BF
:102F10000FC021F011C022F010C023F013C024F024
:102F200012C025F0060E3FEC17F001C01BF002C0E6
:102F30001CF01BC026F01CC027F0080EFAEC16F09F
:102F40001BEC17F0146E14501D6E1E6A1D501E10DF
:102F5000D8A405D0040E106E000E0F6E12001D5086
:102F6000FE0F3FEC17F001C018F002C019F01F0E61
:102F70001D24D96E000E1E20DA6EDF50146E145020
:102F8000166E156A1E0E1D24D96E000E1E20DA6EF6
:102F9000DF50176E17501512000E16121850151824
:102FA00004E119501618D8B405D0010E106E000EA9
:102FB0000F6E12001A502018D8A404D00F502118F8
:102FC000D8A405D0020E106E000E0F6E1200050E72
:102FD0000F18D8B404D0060E0F18D8A40CD018506F
:102FE0001B1804E119501C18D8B405D0030E106E3C
:102FF000000E0F6E12001DC00FF01EC010F0120068
:020000040020DA
:08000000FFFFFFFFFFFFFFFF00
:020000040030CA
:0E000000230E3F1EFF8181FF0FC00FE00F4057
:00000001FF
